{
  "_format": "hh-sol-artifact-1",
  "contractName": "PushBytes",
  "sourceName": "contracts/PushBytes.sol",
  "abi": [
    {
      "inputs": [],
      "stateMutability": "nonpayable",
      "type": "constructor"
    },
    {
      "inputs": [
        {
          "internalType": "string",
          "name": "",
          "type": "string"
        }
      ],
      "name": "hash",
      "outputs": [
        {
          "internalType": "bytes",
          "name": "",
          "type": "bytes"
        }
      ],
      "stateMutability": "view",
      "type": "function"
    },
    {
      "inputs": [],
      "name": "owner",
      "outputs": [
        {
          "internalType": "address",
          "name": "",
          "type": "address"
        }
      ],
      "stateMutability": "view",
      "type": "function"
    },
    {
      "inputs": [
        {
          "internalType": "string",
          "name": "_key",
          "type": "string"
        },
        {
          "internalType": "bytes",
          "name": "_value",
          "type": "bytes"
        }
      ],
      "name": "pushData",
      "outputs": [],
      "stateMutability": "nonpayable",
      "type": "function"
    }
  ],
  "bytecode": "0x608060405234801561001057600080fd5b5033600160006101000a81548173ffffffffffffffffffffffffffffffffffffffff021916908373ffffffffffffffffffffffffffffffffffffffff160217905550610831806100616000396000f3fe608060405234801561001057600080fd5b50600436106100415760003560e01c80638da5cb5b14610046578063b411ee9414610064578063d9d8a5be14610094575b600080fd5b61004e6100b0565b60405161005b9190610336565b60405180910390f35b61007e600480360381019061007991906104ab565b6100d6565b60405161008b919061057c565b60405180910390f35b6100ae60048036038101906100a99190610654565b61018c565b005b600160009054906101000a900473ffffffffffffffffffffffffffffffffffffffff1681565b600081805160208101820180518482526020830160208501208183528095505050505050600091509050805461010b90610704565b80601f016020809104026020016040519081016040528092919081815260200182805461013790610704565b80156101845780601f1061015957610100808354040283529160200191610184565b820191906000526020600020905b81548152906001019060200180831161016757829003601f168201915b505050505081565b600160009054906101000a900473ffffffffffffffffffffffffffffffffffffffff1673ffffffffffffffffffffffffffffffffffffffff163373ffffffffffffffffffffffffffffffffffffffff161461021c576040517f08c379a000000000000000000000000000000000000000000000000000000000815260040161021390610792565b60405180910390fd5b8181600086866040516102309291906107e2565b9081526020016040518091039020919061024b929190610252565b5050505050565b82805461025e90610704565b90600052602060002090601f01602090048101928261028057600085556102c7565b82601f1061029957803560ff19168380011785556102c7565b828001600101855582156102c7579182015b828111156102c65782358255916020019190600101906102ab565b5b5090506102d491906102d8565b5090565b5b808211156102f15760008160009055506001016102d9565b5090565b600073ffffffffffffffffffffffffffffffffffffffff82169050919050565b6000610320826102f5565b9050919050565b61033081610315565b82525050565b600060208201905061034b6000830184610327565b92915050565b6000604051905090565b600080fd5b600080fd5b600080fd5b600080fd5b6000601f19601f8301169050919050565b7f4e487b7100000000000000000000000000000000000000000000000000000000600052604160045260246000fd5b6103b88261036f565b810181811067ffffffffffffffff821117156103d7576103d6610380565b5b80604052505050565b60006103ea610351565b90506103f682826103af565b919050565b600067ffffffffffffffff82111561041657610415610380565b5b61041f8261036f565b9050602081019050919050565b82818337600083830152505050565b600061044e610449846103fb565b6103e0565b90508281526020810184848401111561046a5761046961036a565b5b61047584828561042c565b509392505050565b600082601f83011261049257610491610365565b5b81356104a284826020860161043b565b91505092915050565b6000602082840312156104c1576104c061035b565b5b600082013567ffffffffffffffff8111156104df576104de610360565b5b6104eb8482850161047d565b91505092915050565b600081519050919050565b600082825260208201905092915050565b60005b8381101561052e578082015181840152602081019050610513565b8381111561053d576000848401525b50505050565b600061054e826104f4565b61055881856104ff565b9350610568818560208601610510565b6105718161036f565b840191505092915050565b600060208201905081810360008301526105968184610543565b905092915050565b600080fd5b600080fd5b60008083601f8401126105be576105bd610365565b5b8235905067ffffffffffffffff8111156105db576105da61059e565b5b6020830191508360018202830111156105f7576105f66105a3565b5b9250929050565b60008083601f84011261061457610613610365565b5b8235905067ffffffffffffffff8111156106315761063061059e565b5b60208301915083600182028301111561064d5761064c6105a3565b5b9250929050565b6000806000806040858703121561066e5761066d61035b565b5b600085013567ffffffffffffffff81111561068c5761068b610360565b5b610698878288016105a8565b9450945050602085013567ffffffffffffffff8111156106bb576106ba610360565b5b6106c7878288016105fe565b925092505092959194509250565b7f4e487b7100000000000000000000000000000000000000000000000000000000600052602260045260246000fd5b6000600282049050600182168061071c57607f821691505b60208210810361072f5761072e6106d5565b5b50919050565b600082825260208201905092915050565b7f5075736842797465733a204f6e6c79206f776e65722066756e6374696f6e0000600082015250565b600061077c601e83610735565b915061078782610746565b602082019050919050565b600060208201905081810360008301526107ab8161076f565b9050919050565b600081905092915050565b60006107c983856107b2565b93506107d683858461042c565b82840190509392505050565b60006107ef8284866107bd565b9150819050939250505056fea2646970667358221220e288baa1da596edcb8480fff7fc33b9f5d3c6d9a5cd1c831ecf6c49e3d262af064736f6c634300080e0033",
  "linkReferences": {},
  "deployedLinkReferences": {}
}