{
  "_format": "hh-sol-artifact-1",
  "contractName": "PushBytes",
  "sourceName": "contracts/PushBytes.sol",
  "abi": [
    {
      "inputs": [],
      "stateMutability": "nonpayable",
      "type": "constructor"
    },
    {
      "anonymous": false,
      "inputs": [
        {
          "indexed": false,
          "internalType": "string",
          "name": "_key",
          "type": "string"
        },
        {
          "indexed": false,
          "internalType": "bytes",
          "name": "_value",
          "type": "bytes"
        }
      ],
      "name": "DataPushed",
      "type": "event"
    },
    {
      "inputs": [
        {
          "internalType": "string",
          "name": "",
          "type": "string"
        }
      ],
      "name": "hash",
      "outputs": [
        {
          "internalType": "bytes",
          "name": "",
          "type": "bytes"
        }
      ],
      "stateMutability": "view",
      "type": "function"
    },
    {
      "inputs": [],
      "name": "owner",
      "outputs": [
        {
          "internalType": "address",
          "name": "",
          "type": "address"
        }
      ],
      "stateMutability": "view",
      "type": "function"
    },
    {
      "inputs": [
        {
          "internalType": "string",
          "name": "_key",
          "type": "string"
        },
        {
          "internalType": "bytes",
          "name": "_value",
          "type": "bytes"
        }
      ],
      "name": "pushData",
      "outputs": [],
      "stateMutability": "nonpayable",
      "type": "function"
    }
  ],
  "bytecode": "0x608060405234801561001057600080fd5b5033600160006101000a81548173ffffffffffffffffffffffffffffffffffffffff021916908373ffffffffffffffffffffffffffffffffffffffff160217905550610903806100616000396000f3fe608060405234801561001057600080fd5b50600436106100415760003560e01c80638da5cb5b14610046578063b411ee9414610064578063d9d8a5be14610094575b600080fd5b61004e6100b0565b60405161005b9190610373565b60405180910390f35b61007e600480360381019061007991906104e8565b6100d6565b60405161008b91906105b9565b60405180910390f35b6100ae60048036038101906100a99190610691565b61018c565b005b600160009054906101000a900473ffffffffffffffffffffffffffffffffffffffff1681565b600081805160208101820180518482526020830160208501208183528095505050505050600091509050805461010b90610741565b80601f016020809104026020016040519081016040528092919081815260200182805461013790610741565b80156101845780601f1061015957610100808354040283529160200191610184565b820191906000526020600020905b81548152906001019060200180831161016757829003601f168201915b505050505081565b600160009054906101000a900473ffffffffffffffffffffffffffffffffffffffff1673ffffffffffffffffffffffffffffffffffffffff163373ffffffffffffffffffffffffffffffffffffffff161461021c576040517f08c379a0000000000000000000000000000000000000000000000000000000008152600401610213906107cf565b60405180910390fd5b81816000868660405161023092919061081f565b9081526020016040518091039020919061024b92919061028f565b507f18cc9854da154ced33096f782512409d123031c8e7cfaca4b3d1101c77d95138848484846040516102819493929190610892565b60405180910390a150505050565b82805461029b90610741565b90600052602060002090601f0160209004810192826102bd5760008555610304565b82601f106102d657803560ff1916838001178555610304565b82800160010185558215610304579182015b828111156103035782358255916020019190600101906102e8565b5b5090506103119190610315565b5090565b5b8082111561032e576000816000905550600101610316565b5090565b600073ffffffffffffffffffffffffffffffffffffffff82169050919050565b600061035d82610332565b9050919050565b61036d81610352565b82525050565b60006020820190506103886000830184610364565b92915050565b6000604051905090565b600080fd5b600080fd5b600080fd5b600080fd5b6000601f19601f8301169050919050565b7f4e487b7100000000000000000000000000000000000000000000000000000000600052604160045260246000fd5b6103f5826103ac565b810181811067ffffffffffffffff82111715610414576104136103bd565b5b80604052505050565b600061042761038e565b905061043382826103ec565b919050565b600067ffffffffffffffff821115610453576104526103bd565b5b61045c826103ac565b9050602081019050919050565b82818337600083830152505050565b600061048b61048684610438565b61041d565b9050828152602081018484840111156104a7576104a66103a7565b5b6104b2848285610469565b509392505050565b600082601f8301126104cf576104ce6103a2565b5b81356104df848260208601610478565b91505092915050565b6000602082840312156104fe576104fd610398565b5b600082013567ffffffffffffffff81111561051c5761051b61039d565b5b610528848285016104ba565b91505092915050565b600081519050919050565b600082825260208201905092915050565b60005b8381101561056b578082015181840152602081019050610550565b8381111561057a576000848401525b50505050565b600061058b82610531565b610595818561053c565b93506105a581856020860161054d565b6105ae816103ac565b840191505092915050565b600060208201905081810360008301526105d38184610580565b905092915050565b600080fd5b600080fd5b60008083601f8401126105fb576105fa6103a2565b5b8235905067ffffffffffffffff811115610618576106176105db565b5b602083019150836001820283011115610634576106336105e0565b5b9250929050565b60008083601f840112610651576106506103a2565b5b8235905067ffffffffffffffff81111561066e5761066d6105db565b5b60208301915083600182028301111561068a576106896105e0565b5b9250929050565b600080600080604085870312156106ab576106aa610398565b5b600085013567ffffffffffffffff8111156106c9576106c861039d565b5b6106d5878288016105e5565b9450945050602085013567ffffffffffffffff8111156106f8576106f761039d565b5b6107048782880161063b565b925092505092959194509250565b7f4e487b7100000000000000000000000000000000000000000000000000000000600052602260045260246000fd5b6000600282049050600182168061075957607f821691505b60208210810361076c5761076b610712565b5b50919050565b600082825260208201905092915050565b7f5075736842797465733a204f6e6c79206f776e65722066756e6374696f6e0000600082015250565b60006107b9601e83610772565b91506107c482610783565b602082019050919050565b600060208201905081810360008301526107e8816107ac565b9050919050565b600081905092915050565b600061080683856107ef565b9350610813838584610469565b82840190509392505050565b600061082c8284866107fa565b91508190509392505050565b60006108448385610772565b9350610851838584610469565b61085a836103ac565b840190509392505050565b6000610871838561053c565b935061087e838584610469565b610887836103ac565b840190509392505050565b600060408201905081810360008301526108ad818688610838565b905081810360208301526108c2818486610865565b90509594505050505056fea2646970667358221220e536c752562cf881c5dbbde540063492d3e81363a26f615fa26f6abbf3747d0764736f6c634300080e0033",
  "linkReferences": {},
  "deployedLinkReferences": {}
}